{
  "contractName": "Lottery",
  "abi": [
    {
      "inputs": [],
      "payable": false,
      "stateMutability": "nonpayable",
      "type": "constructor"
    },
    {
      "constant": false,
      "inputs": [],
      "name": "deterWinner",
      "outputs": [
        {
          "name": "",
          "type": "uint256"
        }
      ],
      "payable": false,
      "stateMutability": "nonpayable",
      "type": "function"
    }
  ],
  "bytecode": "0x608060405234801561001057600080fd5b5033600060016101000a81548173ffffffffffffffffffffffffffffffffffffffff021916908373ffffffffffffffffffffffffffffffffffffffff16021790555060008060006101000a81548160ff0219169083600181111561007057fe5b0217905550610103806100846000396000f300608060405260043610603f576000357c0100000000000000000000000000000000000000000000000000000000900463ffffffff168063cf13c69f146044575b600080fd5b348015604f57600080fd5b506056606c565b6040518082815260200191505060405180910390f35b60008060016000806101000a81548160ff02191690836001811115608c57fe5b0217905550609760a3565b60ff1690508091505090565b600060084244604051808381526020018281526020019250505060405180910390206001900481151560d157fe5b069050905600a165627a7a72305820d860e1e07bfffe8bd172b7a31434346bb00de5c3adbae67676cfaa0a173caa090029",
  "source": "pragma solidity ^0.4.8;\n\ncontract Lottery {\n    \n    \n    enum LotteryState { Accepting, Finished }\n    LotteryState state; \n    address owner;\n    constructor() public {\n        owner = msg.sender;\n        state = LotteryState.Accepting;\n    }\n\n    function random() private view returns (uint8) {\n        return uint8(uint256(keccak256(block.timestamp, block.difficulty))%8);\n    }\n\n    function deterWinner() public returns (uint) {\n        state = LotteryState.Finished;\n        uint winningNumber = random();\n        return winningNumber;\n    }\n}",
  "sourcePath": "/Users/yupeng/Works/tron-dev/tron-dapp-lottery/contracts/Lottery.sol",
  "compiler": {
    "name": "solc",
    "version": "0.4.24-develop.2018.8.28+commit.3ba0cdec.mod.Emscripten.clang"
  },
  "schemaVersion": "2.0.1",
  "updatedAt": "2019-01-05T04:48:22.639Z"
}